{
  "_format": "hh-sol-artifact-1",
  "contractName": "AvianMarket",
  "sourceName": "contracts/AvianMarket.sol",
  "abi": [
    {
      "inputs": [],
      "stateMutability": "nonpayable",
      "type": "constructor"
    },
    {
      "inputs": [
        {
          "internalType": "address",
          "name": "nftAddress",
          "type": "address"
        },
        {
          "internalType": "uint256",
          "name": "tokenId",
          "type": "uint256"
        }
      ],
      "name": "AlreadyListed",
      "type": "error"
    },
    {
      "inputs": [],
      "name": "NoProceeds",
      "type": "error"
    },
    {
      "inputs": [],
      "name": "NotApprovedForMarketplace",
      "type": "error"
    },
    {
      "inputs": [
        {
          "internalType": "address",
          "name": "nftAddress",
          "type": "address"
        },
        {
          "internalType": "uint256",
          "name": "tokenId",
          "type": "uint256"
        }
      ],
      "name": "NotListed",
      "type": "error"
    },
    {
      "inputs": [],
      "name": "NotOwner",
      "type": "error"
    },
    {
      "inputs": [
        {
          "internalType": "address",
          "name": "nftAddress",
          "type": "address"
        },
        {
          "internalType": "uint256",
          "name": "tokenId",
          "type": "uint256"
        },
        {
          "internalType": "uint256",
          "name": "price",
          "type": "uint256"
        }
      ],
      "name": "PriceNotMet",
      "type": "error"
    },
    {
      "anonymous": false,
      "inputs": [
        {
          "indexed": true,
          "internalType": "address",
          "name": "buyer",
          "type": "address"
        },
        {
          "indexed": true,
          "internalType": "address",
          "name": "nftAddress",
          "type": "address"
        },
        {
          "indexed": true,
          "internalType": "uint256",
          "name": "tokenId",
          "type": "uint256"
        },
        {
          "indexed": false,
          "internalType": "uint256",
          "name": "price",
          "type": "uint256"
        }
      ],
      "name": "ItemBought",
      "type": "event"
    },
    {
      "anonymous": false,
      "inputs": [
        {
          "indexed": true,
          "internalType": "address",
          "name": "seller",
          "type": "address"
        },
        {
          "indexed": true,
          "internalType": "address",
          "name": "nftAddress",
          "type": "address"
        },
        {
          "indexed": true,
          "internalType": "uint256",
          "name": "tokenId",
          "type": "uint256"
        }
      ],
      "name": "ItemCanceled",
      "type": "event"
    },
    {
      "anonymous": false,
      "inputs": [
        {
          "indexed": true,
          "internalType": "address",
          "name": "seller",
          "type": "address"
        },
        {
          "indexed": true,
          "internalType": "address",
          "name": "nftAddress",
          "type": "address"
        },
        {
          "indexed": true,
          "internalType": "uint256",
          "name": "tokenId",
          "type": "uint256"
        },
        {
          "indexed": false,
          "internalType": "uint256",
          "name": "price",
          "type": "uint256"
        }
      ],
      "name": "ItemListed",
      "type": "event"
    },
    {
      "anonymous": false,
      "inputs": [
        {
          "indexed": true,
          "internalType": "address",
          "name": "owner",
          "type": "address"
        },
        {
          "indexed": true,
          "internalType": "address",
          "name": "user",
          "type": "address"
        },
        {
          "indexed": true,
          "internalType": "address",
          "name": "nftContract",
          "type": "address"
        },
        {
          "indexed": false,
          "internalType": "uint256",
          "name": "tokenId",
          "type": "uint256"
        },
        {
          "indexed": false,
          "internalType": "uint256",
          "name": "pricePerDay",
          "type": "uint256"
        },
        {
          "indexed": false,
          "internalType": "uint256",
          "name": "startDateUNIX",
          "type": "uint256"
        },
        {
          "indexed": false,
          "internalType": "uint256",
          "name": "endDateUNIX",
          "type": "uint256"
        },
        {
          "indexed": false,
          "internalType": "uint256",
          "name": "expires",
          "type": "uint256"
        }
      ],
      "name": "NFTListed",
      "type": "event"
    },
    {
      "anonymous": false,
      "inputs": [
        {
          "indexed": true,
          "internalType": "address",
          "name": "owner",
          "type": "address"
        },
        {
          "indexed": true,
          "internalType": "address",
          "name": "user",
          "type": "address"
        },
        {
          "indexed": true,
          "internalType": "address",
          "name": "nftContract",
          "type": "address"
        },
        {
          "indexed": false,
          "internalType": "uint256",
          "name": "tokenId",
          "type": "uint256"
        },
        {
          "indexed": false,
          "internalType": "uint256",
          "name": "startDateUNIX",
          "type": "uint256"
        },
        {
          "indexed": false,
          "internalType": "uint256",
          "name": "endDateUNIX",
          "type": "uint256"
        },
        {
          "indexed": false,
          "internalType": "uint64",
          "name": "expires",
          "type": "uint64"
        },
        {
          "indexed": false,
          "internalType": "uint256",
          "name": "rentalFee",
          "type": "uint256"
        }
      ],
      "name": "NFTRented",
      "type": "event"
    },
    {
      "anonymous": false,
      "inputs": [
        {
          "indexed": true,
          "internalType": "address",
          "name": "unlistSender",
          "type": "address"
        },
        {
          "indexed": true,
          "internalType": "address",
          "name": "nftContract",
          "type": "address"
        },
        {
          "indexed": true,
          "internalType": "uint256",
          "name": "tokenId",
          "type": "uint256"
        },
        {
          "indexed": false,
          "internalType": "uint256",
          "name": "refund",
          "type": "uint256"
        }
      ],
      "name": "NFTUnlisted",
      "type": "event"
    },
    {
      "inputs": [
        {
          "internalType": "address",
          "name": "nftAddress",
          "type": "address"
        },
        {
          "internalType": "uint256",
          "name": "tokenId",
          "type": "uint256"
        }
      ],
      "name": "buyItem",
      "outputs": [],
      "stateMutability": "payable",
      "type": "function"
    },
    {
      "inputs": [
        {
          "internalType": "address",
          "name": "nftAddress",
          "type": "address"
        },
        {
          "internalType": "uint256",
          "name": "tokenId",
          "type": "uint256"
        }
      ],
      "name": "cancelListing",
      "outputs": [],
      "stateMutability": "nonpayable",
      "type": "function"
    },
    {
      "inputs": [
        {
          "internalType": "address",
          "name": "nftAddress",
          "type": "address"
        },
        {
          "internalType": "uint256",
          "name": "tokenId",
          "type": "uint256"
        }
      ],
      "name": "getListing",
      "outputs": [
        {
          "components": [
            {
              "internalType": "uint256",
              "name": "price",
              "type": "uint256"
            },
            {
              "internalType": "address",
              "name": "seller",
              "type": "address"
            }
          ],
          "internalType": "struct AvianMarket.Listing_sell",
          "name": "",
          "type": "tuple"
        }
      ],
      "stateMutability": "view",
      "type": "function"
    },
    {
      "inputs": [],
      "name": "getListingFee",
      "outputs": [
        {
          "internalType": "uint256",
          "name": "",
          "type": "uint256"
        }
      ],
      "stateMutability": "view",
      "type": "function"
    },
    {
      "inputs": [
        {
          "internalType": "address",
          "name": "seller",
          "type": "address"
        }
      ],
      "name": "getProceeds",
      "outputs": [
        {
          "internalType": "uint256",
          "name": "",
          "type": "uint256"
        }
      ],
      "stateMutability": "view",
      "type": "function"
    },
    {
      "inputs": [],
      "name": "getRentListings",
      "outputs": [
        {
          "components": [
            {
              "internalType": "address",
              "name": "owner",
              "type": "address"
            },
            {
              "internalType": "address",
              "name": "user",
              "type": "address"
            },
            {
              "internalType": "address",
              "name": "nftContract",
              "type": "address"
            },
            {
              "internalType": "uint256",
              "name": "tokenId",
              "type": "uint256"
            },
            {
              "internalType": "uint256",
              "name": "pricePerDay",
              "type": "uint256"
            },
            {
              "internalType": "uint256",
              "name": "startDateUNIX",
              "type": "uint256"
            },
            {
              "internalType": "uint256",
              "name": "endDateUNIX",
              "type": "uint256"
            },
            {
              "internalType": "uint256",
              "name": "expires",
              "type": "uint256"
            }
          ],
          "internalType": "struct AvianMarket.Listing_rent[]",
          "name": "",
          "type": "tuple[]"
        }
      ],
      "stateMutability": "view",
      "type": "function"
    },
    {
      "inputs": [],
      "name": "getSellListings",
      "outputs": [
        {
          "components": [
            {
              "internalType": "uint256",
              "name": "price",
              "type": "uint256"
            },
            {
              "internalType": "address",
              "name": "seller",
              "type": "address"
            }
          ],
          "internalType": "struct AvianMarket.Listing_sell[]",
          "name": "",
          "type": "tuple[]"
        }
      ],
      "stateMutability": "view",
      "type": "function"
    },
    {
      "inputs": [
        {
          "internalType": "address",
          "name": "nftContract",
          "type": "address"
        }
      ],
      "name": "isNFT",
      "outputs": [
        {
          "internalType": "bool",
          "name": "",
          "type": "bool"
        }
      ],
      "stateMutability": "view",
      "type": "function"
    },
    {
      "inputs": [
        {
          "internalType": "address",
          "name": "nftContract",
          "type": "address"
        }
      ],
      "name": "isRentableNFT",
      "outputs": [
        {
          "internalType": "bool",
          "name": "",
          "type": "bool"
        }
      ],
      "stateMutability": "view",
      "type": "function"
    },
    {
      "inputs": [
        {
          "internalType": "address",
          "name": "nftAddress",
          "type": "address"
        },
        {
          "internalType": "uint256",
          "name": "tokenId",
          "type": "uint256"
        },
        {
          "internalType": "uint256",
          "name": "price",
          "type": "uint256"
        }
      ],
      "name": "listItem",
      "outputs": [],
      "stateMutability": "nonpayable",
      "type": "function"
    },
    {
      "inputs": [
        {
          "internalType": "address",
          "name": "nftAddress",
          "type": "address"
        },
        {
          "internalType": "uint256",
          "name": "tokenId",
          "type": "uint256"
        },
        {
          "internalType": "uint256",
          "name": "pricePerDay",
          "type": "uint256"
        },
        {
          "internalType": "uint256",
          "name": "startDateUNIX",
          "type": "uint256"
        },
        {
          "internalType": "uint256",
          "name": "endDateUNIX",
          "type": "uint256"
        }
      ],
      "name": "listNFT",
      "outputs": [],
      "stateMutability": "payable",
      "type": "function"
    },
    {
      "inputs": [
        {
          "internalType": "address",
          "name": "nftContract",
          "type": "address"
        },
        {
          "internalType": "uint256",
          "name": "tokenId",
          "type": "uint256"
        },
        {
          "internalType": "uint64",
          "name": "numDays",
          "type": "uint64"
        }
      ],
      "name": "rentNFT",
      "outputs": [],
      "stateMutability": "payable",
      "type": "function"
    },
    {
      "inputs": [
        {
          "internalType": "address",
          "name": "nftAddress",
          "type": "address"
        },
        {
          "internalType": "uint256",
          "name": "tokenId",
          "type": "uint256"
        }
      ],
      "name": "unlistNFT",
      "outputs": [],
      "stateMutability": "payable",
      "type": "function"
    },
    {
      "inputs": [
        {
          "internalType": "address",
          "name": "nftAddress",
          "type": "address"
        },
        {
          "internalType": "uint256",
          "name": "tokenId",
          "type": "uint256"
        },
        {
          "internalType": "uint256",
          "name": "newPrice",
          "type": "uint256"
        }
      ],
      "name": "updateListing",
      "outputs": [],
      "stateMutability": "nonpayable",
      "type": "function"
    },
    {
      "inputs": [],
      "name": "withdrawProceeds",
      "outputs": [],
      "stateMutability": "nonpayable",
      "type": "function"
    }
  ],
  "bytecode": "0x608060405266038d7ea4c6800060025534801561001b57600080fd5b50600160008190555033600160006101000a81548173ffffffffffffffffffffffffffffffffffffffff021916908373ffffffffffffffffffffffffffffffffffffffff1602179055506147f4806100746000396000f3fe6080604052600436106100e85760003560e01c8063995e578b1161008a578063b31b85c911610059578063b31b85c914610296578063b8fe6abe146102d3578063e9a6f4f6146102fe578063f772adf11461033b576100e8565b8063995e578b1461020a5780639a34f003146102355780639f37092a14610251578063b2ddee061461026d576100e8565b80637fc27efd116100c65780637fc27efd1461017157806388700d1c1461018d57806389bfd38f146101ca5780639038e693146101f3576100e8565b806330cfeda9146100ed578063789df8db1461012a5780637e943afd14610155575b600080fd5b3480156100f957600080fd5b50610114600480360381019061010f91906135f0565b610364565b6040516101219190613636565b60405180910390f35b34801561013657600080fd5b5061013f6103ad565b60405161014c91906137c1565b60405180910390f35b61016f600480360381019061016a919061380f565b6106aa565b005b61018b6004803603810190610186919061388a565b610f67565b005b34801561019957600080fd5b506101b460048036038101906101af919061388a565b611671565b6040516101c191906138f9565b60405180910390f35b3480156101d657600080fd5b506101f160048036038101906101ec9190613914565b61173c565b005b3480156101ff57600080fd5b50610208611c3b565b005b34801561021657600080fd5b5061021f611dae565b60405161022c9190613a45565b60405180910390f35b61024f600480360381019061024a9190613aa7565b611fd6565b005b61026b6004803603810190610266919061388a565b612397565b005b34801561027957600080fd5b50610294600480360381019061028f919061388a565b612832565b005b3480156102a257600080fd5b506102bd60048036038101906102b891906135f0565b612bc0565b6040516102ca9190613b15565b60405180910390f35b3480156102df57600080fd5b506102e8612c76565b6040516102f59190613636565b60405180910390f35b34801561030a57600080fd5b50610325600480360381019061032091906135f0565b612c80565b6040516103329190613b15565b60405180910390f35b34801561034757600080fd5b50610362600480360381019061035d9190613914565b612de9565b005b6000600560008373ffffffffffffffffffffffffffffffffffffffff1673ffffffffffffffffffffffffffffffffffffffff168152602001908152602001600020549050919050565b606060006103bb600d6130fe565b67ffffffffffffffff8111156103d4576103d3613b30565b5b60405190808252806020026020018201604052801561040d57816020015b6103fa6134d6565b8152602001906001900390816103f25790505b50905060008061041d600a61310c565b905060005b81518110156106a05760008282815181106104405761043f613b5f565b5b602002602001015190506000610493600760008473ffffffffffffffffffffffffffffffffffffffff1673ffffffffffffffffffffffffffffffffffffffff16815260200190815260200160002061312d565b905060005b815181101561068a57600460008473ffffffffffffffffffffffffffffffffffffffff1673ffffffffffffffffffffffffffffffffffffffff16815260200190815260200160002060008383815181106104f5576104f4613b5f565b5b60200260200101518152602001908152602001600020604051806101000160405290816000820160009054906101000a900473ffffffffffffffffffffffffffffffffffffffff1673ffffffffffffffffffffffffffffffffffffffff1673ffffffffffffffffffffffffffffffffffffffff1681526020016001820160009054906101000a900473ffffffffffffffffffffffffffffffffffffffff1673ffffffffffffffffffffffffffffffffffffffff1673ffffffffffffffffffffffffffffffffffffffff1681526020016002820160009054906101000a900473ffffffffffffffffffffffffffffffffffffffff1673ffffffffffffffffffffffffffffffffffffffff1673ffffffffffffffffffffffffffffffffffffffff1681526020016003820154815260200160048201548152602001600582015481526020016006820154815260200160078201548152505087878151811061065e5761065d613b5f565b5b6020026020010181905250858061067490613bbd565b965050808061068290613bbd565b915050610498565b505050808061069890613bbd565b915050610422565b5082935050505090565b6106b261314e565b84846000600460008473ffffffffffffffffffffffffffffffffffffffff1673ffffffffffffffffffffffffffffffffffffffff1681526020019081526020016000206000838152602001908152602001600020604051806101000160405290816000820160009054906101000a900473ffffffffffffffffffffffffffffffffffffffff1673ffffffffffffffffffffffffffffffffffffffff1673ffffffffffffffffffffffffffffffffffffffff1681526020016001820160009054906101000a900473ffffffffffffffffffffffffffffffffffffffff1673ffffffffffffffffffffffffffffffffffffffff1673ffffffffffffffffffffffffffffffffffffffff1681526020016002820160009054906101000a900473ffffffffffffffffffffffffffffffffffffffff1673ffffffffffffffffffffffffffffffffffffffff1673ffffffffffffffffffffffffffffffffffffffff1681526020016003820154815260200160048201548152602001600582015481526020016006820154815260200160078201548152505090506000816080015111156108945782826040517f4a5568d500000000000000000000000000000000000000000000000000000000815260040161088b929190613c14565b60405180910390fd5b61089d88612c80565b6108dc576040517f08c379a00000000000000000000000000000000000000000000000000000000081526004016108d390613c9a565b60405180910390fd5b3373ffffffffffffffffffffffffffffffffffffffff168873ffffffffffffffffffffffffffffffffffffffff16636352211e896040518263ffffffff1660e01b815260040161092c9190613636565b602060405180830381865afa158015610949573d6000803e3d6000fd5b505050506040513d601f19601f8201168201806040525081019061096d9190613ccf565b73ffffffffffffffffffffffffffffffffffffffff16146109c3576040517f08c379a00000000000000000000000000000000000000000000000000000000081526004016109ba90613d48565b60405180910390fd5b6002543414610a07576040517f08c379a00000000000000000000000000000000000000000000000000000000081526004016109fe90613db4565b60405180910390fd5b60008611610a4a576040517f08c379a0000000000000000000000000000000000000000000000000000000008152600401610a4190613e46565b60405180910390fd5b42851015610a8d576040517f08c379a0000000000000000000000000000000000000000000000000000000008152600401610a8490613eb2565b60405180910390fd5b84841015610ad0576040517f08c379a0000000000000000000000000000000000000000000000000000000008152600401610ac790613f44565b60405180910390fd5b60008890503073ffffffffffffffffffffffffffffffffffffffff168173ffffffffffffffffffffffffffffffffffffffff1663081812fc8a6040518263ffffffff1660e01b8152600401610b259190613636565b602060405180830381865afa158015610b42573d6000803e3d6000fd5b505050506040513d601f19601f82011682018060405250810190610b669190613ccf565b73ffffffffffffffffffffffffffffffffffffffff1614610bb3576040517f4be3a2c500000000000000000000000000000000000000000000000000000000815260040160405180910390fd5b600160009054906101000a900473ffffffffffffffffffffffffffffffffffffffff1673ffffffffffffffffffffffffffffffffffffffff166108fc6002549081150290604051600060405180830381858888f19350505050158015610c1d573d6000803e3d6000fd5b506040518061010001604052803373ffffffffffffffffffffffffffffffffffffffff168152602001600073ffffffffffffffffffffffffffffffffffffffff1681526020018a73ffffffffffffffffffffffffffffffffffffffff1681526020018981526020018881526020018781526020018681526020016000815250600460008b73ffffffffffffffffffffffffffffffffffffffff1673ffffffffffffffffffffffffffffffffffffffff16815260200190815260200160002060008a815260200190815260200160002060008201518160000160006101000a81548173ffffffffffffffffffffffffffffffffffffffff021916908373ffffffffffffffffffffffffffffffffffffffff16021790555060208201518160010160006101000a81548173ffffffffffffffffffffffffffffffffffffffff021916908373ffffffffffffffffffffffffffffffffffffffff16021790555060408201518160020160006101000a81548173ffffffffffffffffffffffffffffffffffffffff021916908373ffffffffffffffffffffffffffffffffffffffff160217905550606082015181600301556080820151816004015560a0820151816005015560c0820151816006015560e08201518160070155905050610e00600d61319d565b610e48600760008b73ffffffffffffffffffffffffffffffffffffffff1673ffffffffffffffffffffffffffffffffffffffff168152602001908152602001600020896131b3565b50610e54600a8a6131cd565b508873ffffffffffffffffffffffffffffffffffffffff16600073ffffffffffffffffffffffffffffffffffffffff168a73ffffffffffffffffffffffffffffffffffffffff16636352211e8b6040518263ffffffff1660e01b8152600401610ebd9190613636565b602060405180830381865afa158015610eda573d6000803e3d6000fd5b505050506040513d601f19601f82011682018060405250810190610efe9190613ccf565b73ffffffffffffffffffffffffffffffffffffffff167f51961ff716bd7d3e30c6869dae4d4c0f9e0c6abbae1aa5887f3f6fa8d68f34df8b8b8b8b6000604051610f4c959493929190613fa9565b60405180910390a450505050610f606131fd565b5050505050565b610f6f61314e565b818133600083905060008173ffffffffffffffffffffffffffffffffffffffff16636352211e856040518263ffffffff1660e01b8152600401610fb29190613636565b602060405180830381865afa158015610fcf573d6000803e3d6000fd5b505050506040513d601f19601f82011682018060405250810190610ff39190613ccf565b90508073ffffffffffffffffffffffffffffffffffffffff168373ffffffffffffffffffffffffffffffffffffffff161461105a576040517f30cd747100000000000000000000000000000000000000000000000000000000815260040160405180910390fd5b86866000600460008473ffffffffffffffffffffffffffffffffffffffff1673ffffffffffffffffffffffffffffffffffffffff1681526020019081526020016000206000838152602001908152602001600020604051806101000160405290816000820160009054906101000a900473ffffffffffffffffffffffffffffffffffffffff1673ffffffffffffffffffffffffffffffffffffffff1673ffffffffffffffffffffffffffffffffffffffff1681526020016001820160009054906101000a900473ffffffffffffffffffffffffffffffffffffffff1673ffffffffffffffffffffffffffffffffffffffff1673ffffffffffffffffffffffffffffffffffffffff1681526020016002820160009054906101000a900473ffffffffffffffffffffffffffffffffffffffff1673ffffffffffffffffffffffffffffffffffffffff1673ffffffffffffffffffffffffffffffffffffffff168152602001600382015481526020016004820154815260200160058201548152602001600682015481526020016007820154815250509050600081608001511161123b5782826040517f6831488c000000000000000000000000000000000000000000000000000000008152600401611232929190613c14565b60405180910390fd5b6000600460008c73ffffffffffffffffffffffffffffffffffffffff1673ffffffffffffffffffffffffffffffffffffffff16815260200190815260200160002060008b8152602001908152602001600020905060008073ffffffffffffffffffffffffffffffffffffffff168260010160009054906101000a900473ffffffffffffffffffffffffffffffffffffffff1673ffffffffffffffffffffffffffffffffffffffff16146113e757816004015460016018603c804287600701546113049190613ffc565b61130e919061405f565b611318919061405f565b611322919061405f565b61132c9190614090565b61133691906140c4565b90508034101561137b576040517f08c379a000000000000000000000000000000000000000000000000000000000815260040161137290614152565b60405180910390fd5b8160010160009054906101000a900473ffffffffffffffffffffffffffffffffffffffff1673ffffffffffffffffffffffffffffffffffffffff166108fc829081150290604051600060405180830381858888f193505050501580156113e5573d6000803e3d6000fd5b505b8b73ffffffffffffffffffffffffffffffffffffffff1663e030565e8c6000806040518463ffffffff1660e01b8152600401611425939291906141a3565b600060405180830381600087803b15801561143f57600080fd5b505af1158015611453573d6000803e3d6000fd5b5050505061149f600760008e73ffffffffffffffffffffffffffffffffffffffff1673ffffffffffffffffffffffffffffffffffffffff1681526020019081526020016000208c613207565b50600460008d73ffffffffffffffffffffffffffffffffffffffff1673ffffffffffffffffffffffffffffffffffffffff16815260200190815260200160002060008c8152602001908152602001600020600080820160006101000a81549073ffffffffffffffffffffffffffffffffffffffff02191690556001820160006101000a81549073ffffffffffffffffffffffffffffffffffffffff02191690556002820160006101000a81549073ffffffffffffffffffffffffffffffffffffffff021916905560038201600090556004820160009055600582016000905560068201600090556007820160009055505060006115d9600760008f73ffffffffffffffffffffffffffffffffffffffff1673ffffffffffffffffffffffffffffffffffffffff168152602001908152602001600020613221565b036115eb576115e9600a8d613236565b505b6115f5600d613266565b8a8c73ffffffffffffffffffffffffffffffffffffffff163373ffffffffffffffffffffffffffffffffffffffff167f6d7362d1e96e1739a576062b58d2055c5f8f9b50bf703c53b1c26cd3a82548c6846040516116539190613636565b60405180910390a45050505050505050505061166d6131fd565b5050565b61167961355d565b600360008473ffffffffffffffffffffffffffffffffffffffff1673ffffffffffffffffffffffffffffffffffffffff1681526020019081526020016000206000838152602001908152602001600020604051806040016040529081600082015481526020016001820160009054906101000a900473ffffffffffffffffffffffffffffffffffffffff1673ffffffffffffffffffffffffffffffffffffffff1673ffffffffffffffffffffffffffffffffffffffff1681525050905092915050565b82826000600360008473ffffffffffffffffffffffffffffffffffffffff1673ffffffffffffffffffffffffffffffffffffffff1681526020019081526020016000206000838152602001908152602001600020604051806040016040529081600082015481526020016001820160009054906101000a900473ffffffffffffffffffffffffffffffffffffffff1673ffffffffffffffffffffffffffffffffffffffff1673ffffffffffffffffffffffffffffffffffffffff168152505090506000816000015111156118495782826040517f4a5568d5000000000000000000000000000000000000000000000000000000008152600401611840929190613c14565b60405180910390fd5b61185286612bc0565b611891576040517f08c379a000000000000000000000000000000000000000000000000000000000815260040161188890614226565b60405180910390fd5b3373ffffffffffffffffffffffffffffffffffffffff168673ffffffffffffffffffffffffffffffffffffffff16636352211e876040518263ffffffff1660e01b81526004016118e19190613636565b602060405180830381865afa1580156118fe573d6000803e3d6000fd5b505050506040513d601f19601f820116820180604052508101906119229190613ccf565b73ffffffffffffffffffffffffffffffffffffffff1614611978576040517f08c379a000000000000000000000000000000000000000000000000000000000815260040161196f90613d48565b60405180910390fd5b600084116119bb576040517f08c379a00000000000000000000000000000000000000000000000000000000081526004016119b2906142b8565b60405180910390fd5b60008690503073ffffffffffffffffffffffffffffffffffffffff168173ffffffffffffffffffffffffffffffffffffffff1663081812fc886040518263ffffffff1660e01b8152600401611a109190613636565b602060405180830381865afa158015611a2d573d6000803e3d6000fd5b505050506040513d601f19601f82011682018060405250810190611a519190613ccf565b73ffffffffffffffffffffffffffffffffffffffff1614611a9e576040517f4be3a2c500000000000000000000000000000000000000000000000000000000815260040160405180910390fd5b60405180604001604052808681526020013373ffffffffffffffffffffffffffffffffffffffff16815250600360008973ffffffffffffffffffffffffffffffffffffffff1673ffffffffffffffffffffffffffffffffffffffff16815260200190815260200160002060008881526020019081526020016000206000820151816000015560208201518160010160006101000a81548173ffffffffffffffffffffffffffffffffffffffff021916908373ffffffffffffffffffffffffffffffffffffffff160217905550905050611b77600c61319d565b611bbf600660008973ffffffffffffffffffffffffffffffffffffffff1673ffffffffffffffffffffffffffffffffffffffff168152602001908152602001600020876131b3565b50611bcb6008886131cd565b50858773ffffffffffffffffffffffffffffffffffffffff163373ffffffffffffffffffffffffffffffffffffffff167fd547e933094f12a9159076970143ebe73234e64480317844b0dcb36117116de488604051611c2a9190613636565b60405180910390a450505050505050565b6000600560003373ffffffffffffffffffffffffffffffffffffffff1673ffffffffffffffffffffffffffffffffffffffff16815260200190815260200160002054905060008111611cb9576040517fc4d8fa8700000000000000000000000000000000000000000000000000000000815260040160405180910390fd5b6000600560003373ffffffffffffffffffffffffffffffffffffffff1673ffffffffffffffffffffffffffffffffffffffff1681526020019081526020016000208190555060003373ffffffffffffffffffffffffffffffffffffffff1682604051611d2490614309565b60006040518083038185875af1925050503d8060008114611d61576040519150601f19603f3d011682016040523d82523d6000602084013e611d66565b606091505b5050905080611daa576040517f08c379a0000000000000000000000000000000000000000000000000000000008152600401611da19061436a565b60405180910390fd5b5050565b60606000611dbc600c6130fe565b67ffffffffffffffff811115611dd557611dd4613b30565b5b604051908082528060200260200182016040528015611e0e57816020015b611dfb61355d565b815260200190600190039081611df35790505b509050600080611e1e600861310c565b905060005b8151811015611fcc576000828281518110611e4157611e40613b5f565b5b602002602001015190506000611e94600660008473ffffffffffffffffffffffffffffffffffffffff1673ffffffffffffffffffffffffffffffffffffffff16815260200190815260200160002061312d565b905060005b8151811015611fb657600360008473ffffffffffffffffffffffffffffffffffffffff1673ffffffffffffffffffffffffffffffffffffffff1681526020019081526020016000206000838381518110611ef657611ef5613b5f565b5b60200260200101518152602001908152602001600020604051806040016040529081600082015481526020016001820160009054906101000a900473ffffffffffffffffffffffffffffffffffffffff1673ffffffffffffffffffffffffffffffffffffffff1673ffffffffffffffffffffffffffffffffffffffff1681525050878781518110611f8a57611f89613b5f565b5b60200260200101819052508580611fa090613bbd565b9650508080611fae90613bbd565b915050611e99565b5050508080611fc490613bbd565b915050611e23565b5082935050505090565b611fde61314e565b6000600460008573ffffffffffffffffffffffffffffffffffffffff1673ffffffffffffffffffffffffffffffffffffffff16815260200190815260200160002060008481526020019081526020016000209050600073ffffffffffffffffffffffffffffffffffffffff168160010160009054906101000a900473ffffffffffffffffffffffffffffffffffffffff1673ffffffffffffffffffffffffffffffffffffffff1614806120945750806007015442115b6120d3576040517f08c379a00000000000000000000000000000000000000000000000000000000081526004016120ca906143d6565b60405180910390fd5b600062015180836120e491906143f6565b426120ef9190614433565b905060008367ffffffffffffffff16836004015461210d91906140c4565b905080341015612152576040517f08c379a0000000000000000000000000000000000000000000000000000000008152600401612149906144e1565b60405180910390fd5b8260000160009054906101000a900473ffffffffffffffffffffffffffffffffffffffff1673ffffffffffffffffffffffffffffffffffffffff166108fc829081150290604051600060405180830381858888f193505050501580156121bc573d6000803e3d6000fd5b508573ffffffffffffffffffffffffffffffffffffffff1663e030565e8633856040518463ffffffff1660e01b81526004016121fa93929190614510565b600060405180830381600087803b15801561221457600080fd5b505af1158015612228573d6000803e3d6000fd5b50505050338360010160006101000a81548173ffffffffffffffffffffffffffffffffffffffff021916908373ffffffffffffffffffffffffffffffffffffffff1602179055508167ffffffffffffffff1683600701819055508573ffffffffffffffffffffffffffffffffffffffff163373ffffffffffffffffffffffffffffffffffffffff168773ffffffffffffffffffffffffffffffffffffffff16636352211e886040518263ffffffff1660e01b81526004016122e99190613636565b602060405180830381865afa158015612306573d6000803e3d6000fd5b505050506040513d601f19601f8201168201806040525081019061232a9190613ccf565b73ffffffffffffffffffffffffffffffffffffffff167f9e281a126f51088cc2a404608130a64cb50df5e046d30d0540344ef4f1b6ec2a8887600501548860060154888860405161237f959493929190614547565b60405180910390a45050506123926131fd565b505050565b81816000600360008473ffffffffffffffffffffffffffffffffffffffff1673ffffffffffffffffffffffffffffffffffffffff1681526020019081526020016000206000838152602001908152602001600020604051806040016040529081600082015481526020016001820160009054906101000a900473ffffffffffffffffffffffffffffffffffffffff1673ffffffffffffffffffffffffffffffffffffffff1673ffffffffffffffffffffffffffffffffffffffff1681525050905060008160000151116124a35782826040517f6831488c00000000000000000000000000000000000000000000000000000000815260040161249a929190613c14565b60405180910390fd5b6124ab61314e565b6000600360008773ffffffffffffffffffffffffffffffffffffffff1673ffffffffffffffffffffffffffffffffffffffff1681526020019081526020016000206000868152602001908152602001600020604051806040016040529081600082015481526020016001820160009054906101000a900473ffffffffffffffffffffffffffffffffffffffff1673ffffffffffffffffffffffffffffffffffffffff1673ffffffffffffffffffffffffffffffffffffffff1681525050905080600001513410156125bb57858582600001516040517f7c9345650000000000000000000000000000000000000000000000000000000081526004016125b29392919061459a565b60405180910390fd5b3460056000836020015173ffffffffffffffffffffffffffffffffffffffff1673ffffffffffffffffffffffffffffffffffffffff168152602001908152602001600020600082825461260e9190614090565b92505081905550600360008773ffffffffffffffffffffffffffffffffffffffff1673ffffffffffffffffffffffffffffffffffffffff16815260200190815260200160002060008681526020019081526020016000206000808201600090556001820160006101000a81549073ffffffffffffffffffffffffffffffffffffffff021916905550506126df600660008873ffffffffffffffffffffffffffffffffffffffff1673ffffffffffffffffffffffffffffffffffffffff16815260200190815260200160002086613207565b506000612729600660008973ffffffffffffffffffffffffffffffffffffffff1673ffffffffffffffffffffffffffffffffffffffff168152602001908152602001600020613221565b0361273b57612739600887613236565b505b612745600c613266565b8573ffffffffffffffffffffffffffffffffffffffff166342842e0e826020015133886040518463ffffffff1660e01b8152600401612786939291906145d1565b600060405180830381600087803b1580156127a057600080fd5b505af11580156127b4573d6000803e3d6000fd5b50505050848673ffffffffffffffffffffffffffffffffffffffff163373ffffffffffffffffffffffffffffffffffffffff167f263223b1dd81e51054a4e6f791d45a4a1ddb4aadcd93a2dfd892615c3fdac187846000015160405161281a9190613636565b60405180910390a45061282b6131fd565b5050505050565b818133600083905060008173ffffffffffffffffffffffffffffffffffffffff16636352211e856040518263ffffffff1660e01b81526004016128759190613636565b602060405180830381865afa158015612892573d6000803e3d6000fd5b505050506040513d601f19601f820116820180604052508101906128b69190613ccf565b90508073ffffffffffffffffffffffffffffffffffffffff168373ffffffffffffffffffffffffffffffffffffffff161461291d576040517f30cd747100000000000000000000000000000000000000000000000000000000815260040160405180910390fd5b86866000600360008473ffffffffffffffffffffffffffffffffffffffff1673ffffffffffffffffffffffffffffffffffffffff1681526020019081526020016000206000838152602001908152602001600020604051806040016040529081600082015481526020016001820160009054906101000a900473ffffffffffffffffffffffffffffffffffffffff1673ffffffffffffffffffffffffffffffffffffffff1673ffffffffffffffffffffffffffffffffffffffff168152505090506000816000015111612a295782826040517f6831488c000000000000000000000000000000000000000000000000000000008152600401612a20929190613c14565b60405180910390fd5b600360008b73ffffffffffffffffffffffffffffffffffffffff1673ffffffffffffffffffffffffffffffffffffffff16815260200190815260200160002060008a81526020019081526020016000206000808201600090556001820160006101000a81549073ffffffffffffffffffffffffffffffffffffffff02191690555050612af3600660008c73ffffffffffffffffffffffffffffffffffffffff1673ffffffffffffffffffffffffffffffffffffffff1681526020019081526020016000208a613207565b506000612b3d600660008d73ffffffffffffffffffffffffffffffffffffffff1673ffffffffffffffffffffffffffffffffffffffff168152602001908152602001600020613221565b03612b4f57612b4d60088b613236565b505b612b59600c613266565b888a73ffffffffffffffffffffffffffffffffffffffff163373ffffffffffffffffffffffffffffffffffffffff167f9ba1a3cb55ce8d63d072a886f94d2a744f50cddf82128e897d0661f5ec62315860405160405180910390a450505050505050505050565b600080600090508273ffffffffffffffffffffffffffffffffffffffff166301ffc9a77f80ac58cd000000000000000000000000000000000000000000000000000000006040518263ffffffff1660e01b8152600401612c209190614643565b602060405180830381865afa925050508015612c5a57506040513d601f19601f82011682018060405250810190612c57919061468a565b60015b612c68576000915050612c71565b80915050809150505b919050565b6000600254905090565b6000806000905060008373ffffffffffffffffffffffffffffffffffffffff166301ffc9a77fad092b5c000000000000000000000000000000000000000000000000000000006040518263ffffffff1660e01b8152600401612ce29190614643565b602060405180830381865afa925050508015612d1c57506040513d601f19601f82011682018060405250810190612d19919061468a565b60015b612d2b57600092505050612de4565b809250508373ffffffffffffffffffffffffffffffffffffffff166301ffc9a77f80ac58cd000000000000000000000000000000000000000000000000000000006040518263ffffffff1660e01b8152600401612d889190614643565b602060405180830381865afa925050508015612dc257506040513d601f19601f82011682018060405250810190612dbf919061468a565b60015b612dd157600092505050612de4565b80915050818015612ddf5750805b925050505b919050565b82826000600360008473ffffffffffffffffffffffffffffffffffffffff1673ffffffffffffffffffffffffffffffffffffffff1681526020019081526020016000206000838152602001908152602001600020604051806040016040529081600082015481526020016001820160009054906101000a900473ffffffffffffffffffffffffffffffffffffffff1673ffffffffffffffffffffffffffffffffffffffff1673ffffffffffffffffffffffffffffffffffffffff168152505090506000816000015111612ef55782826040517f6831488c000000000000000000000000000000000000000000000000000000008152600401612eec929190613c14565b60405180910390fd5b612efd61314e565b858533600083905060008173ffffffffffffffffffffffffffffffffffffffff16636352211e856040518263ffffffff1660e01b8152600401612f409190613636565b602060405180830381865afa158015612f5d573d6000803e3d6000fd5b505050506040513d601f19601f82011682018060405250810190612f819190613ccf565b90508073ffffffffffffffffffffffffffffffffffffffff168373ffffffffffffffffffffffffffffffffffffffff1614612fe8576040517f30cd747100000000000000000000000000000000000000000000000000000000815260040160405180910390fd5b6000891161302b576040517f08c379a0000000000000000000000000000000000000000000000000000000008152600401613022906142b8565b60405180910390fd5b88600360008d73ffffffffffffffffffffffffffffffffffffffff1673ffffffffffffffffffffffffffffffffffffffff16815260200190815260200160002060008c815260200190815260200160002060000181905550898b73ffffffffffffffffffffffffffffffffffffffff163373ffffffffffffffffffffffffffffffffffffffff167fd547e933094f12a9159076970143ebe73234e64480317844b0dcb36117116de48c6040516130e19190613636565b60405180910390a450505050506130f66131fd565b505050505050565b600081600001549050919050565b6060600061311c836000016132c2565b905060608190508092505050919050565b6060600061313d836000016132c2565b905060608190508092505050919050565b600260005403613193576040517f08c379a000000000000000000000000000000000000000000000000000000000815260040161318a90614703565b60405180910390fd5b6002600081905550565b6001816000016000828254019250508190555050565b60006131c5836000018360001b61331e565b905092915050565b60006131f5836000018373ffffffffffffffffffffffffffffffffffffffff1660001b61331e565b905092915050565b6001600081905550565b6000613219836000018360001b61338e565b905092915050565b600061322f826000016134a2565b9050919050565b600061325e836000018373ffffffffffffffffffffffffffffffffffffffff1660001b61338e565b905092915050565b600081600001549050600081116132b2576040517f08c379a00000000000000000000000000000000000000000000000000000000081526004016132a99061476f565b60405180910390fd5b6001810382600001819055505050565b60608160000180548060200260200160405190810160405280929190818152602001828054801561331257602002820191906000526020600020905b8154815260200190600101908083116132fe575b50505050509050919050565b600061332a83836134b3565b613383578260000182908060018154018082558091505060019003906000526020600020016000909190919091505582600001805490508360010160008481526020019081526020016000208190555060019050613388565b600090505b92915050565b600080836001016000848152602001908152602001600020549050600081146134965760006001826133c09190613ffc565b90506000600186600001805490506133d89190613ffc565b90508181146134475760008660000182815481106133f9576133f8613b5f565b5b906000526020600020015490508087600001848154811061341d5761341c613b5f565b5b90600052602060002001819055508387600101600083815260200190815260200160002081905550505b8560000180548061345b5761345a61478f565b5b60019003818190600052602060002001600090559055856001016000868152602001908152602001600020600090556001935050505061349c565b60009150505b92915050565b600081600001805490509050919050565b600080836001016000848152602001908152602001600020541415905092915050565b604051806101000160405280600073ffffffffffffffffffffffffffffffffffffffff168152602001600073ffffffffffffffffffffffffffffffffffffffff168152602001600073ffffffffffffffffffffffffffffffffffffffff16815260200160008152602001600081526020016000815260200160008152602001600081525090565b604051806040016040528060008152602001600073ffffffffffffffffffffffffffffffffffffffff1681525090565b600080fd5b600073ffffffffffffffffffffffffffffffffffffffff82169050919050565b60006135bd82613592565b9050919050565b6135cd816135b2565b81146135d857600080fd5b50565b6000813590506135ea816135c4565b92915050565b6000602082840312156136065761360561358d565b5b6000613614848285016135db565b91505092915050565b6000819050919050565b6136308161361d565b82525050565b600060208201905061364b6000830184613627565b92915050565b600081519050919050565b600082825260208201905092915050565b6000819050602082019050919050565b613686816135b2565b82525050565b6136958161361d565b82525050565b610100820160008201516136b2600085018261367d565b5060208201516136c5602085018261367d565b5060408201516136d8604085018261367d565b5060608201516136eb606085018261368c565b5060808201516136fe608085018261368c565b5060a082015161371160a085018261368c565b5060c082015161372460c085018261368c565b5060e082015161373760e085018261368c565b50505050565b6000613749838361369b565b6101008301905092915050565b6000602082019050919050565b600061376e82613651565b613778818561365c565b93506137838361366d565b8060005b838110156137b457815161379b888261373d565b97506137a683613756565b925050600181019050613787565b5085935050505092915050565b600060208201905081810360008301526137db8184613763565b905092915050565b6137ec8161361d565b81146137f757600080fd5b50565b600081359050613809816137e3565b92915050565b600080600080600060a0868803121561382b5761382a61358d565b5b6000613839888289016135db565b955050602061384a888289016137fa565b945050604061385b888289016137fa565b935050606061386c888289016137fa565b925050608061387d888289016137fa565b9150509295509295909350565b600080604083850312156138a1576138a061358d565b5b60006138af858286016135db565b92505060206138c0858286016137fa565b9150509250929050565b6040820160008201516138e0600085018261368c565b5060208201516138f3602085018261367d565b50505050565b600060408201905061390e60008301846138ca565b92915050565b60008060006060848603121561392d5761392c61358d565b5b600061393b868287016135db565b935050602061394c868287016137fa565b925050604061395d868287016137fa565b9150509250925092565b600081519050919050565b600082825260208201905092915050565b6000819050602082019050919050565b6040820160008201516139a9600085018261368c565b5060208201516139bc602085018261367d565b50505050565b60006139ce8383613993565b60408301905092915050565b6000602082019050919050565b60006139f282613967565b6139fc8185613972565b9350613a0783613983565b8060005b83811015613a38578151613a1f88826139c2565b9750613a2a836139da565b925050600181019050613a0b565b5085935050505092915050565b60006020820190508181036000830152613a5f81846139e7565b905092915050565b600067ffffffffffffffff82169050919050565b613a8481613a67565b8114613a8f57600080fd5b50565b600081359050613aa181613a7b565b92915050565b600080600060608486031215613ac057613abf61358d565b5b6000613ace868287016135db565b9350506020613adf868287016137fa565b9250506040613af086828701613a92565b9150509250925092565b60008115159050919050565b613b0f81613afa565b82525050565b6000602082019050613b2a6000830184613b06565b92915050565b7f4e487b7100000000000000000000000000000000000000000000000000000000600052604160045260246000fd5b7f4e487b7100000000000000000000000000000000000000000000000000000000600052603260045260246000fd5b7f4e487b7100000000000000000000000000000000000000000000000000000000600052601160045260246000fd5b6000613bc88261361d565b91507fffffffffffffffffffffffffffffffffffffffffffffffffffffffffffffffff8203613bfa57613bf9613b8e565b5b600182019050919050565b613c0e816135b2565b82525050565b6000604082019050613c296000830185613c05565b613c366020830184613627565b9392505050565b600082825260208201905092915050565b7f436f6e7472616374206973206e6f7420616e2045524334393037000000000000600082015250565b6000613c84601a83613c3d565b9150613c8f82613c4e565b602082019050919050565b60006020820190508181036000830152613cb381613c77565b9050919050565b600081519050613cc9816135c4565b92915050565b600060208284031215613ce557613ce461358d565b5b6000613cf384828501613cba565b91505092915050565b7f4e6f74206f776e6572206f66206e667400000000000000000000000000000000600082015250565b6000613d32601083613c3d565b9150613d3d82613cfc565b602082019050919050565b60006020820190508181036000830152613d6181613d25565b9050919050565b7f4e6f7420656e6f75676820657468657220666f72206c697374696e6720666565600082015250565b6000613d9e602083613c3d565b9150613da982613d68565b602082019050919050565b60006020820190508181036000830152613dcd81613d91565b9050919050565b7f52656e74616c2070726963652073686f756c642062652067726561746572207460008201527f68616e2030000000000000000000000000000000000000000000000000000000602082015250565b6000613e30602583613c3d565b9150613e3b82613dd4565b604082019050919050565b60006020820190508181036000830152613e5f81613e23565b9050919050565b7f537461727420646174652063616e6e6f7420626520696e207468652070617374600082015250565b6000613e9c602083613c3d565b9150613ea782613e66565b602082019050919050565b60006020820190508181036000830152613ecb81613e8f565b9050919050565b7f456e6420646174652063616e6e6f74206265206265666f72652074686520737460008201527f6172742064617465000000000000000000000000000000000000000000000000602082015250565b6000613f2e602883613c3d565b9150613f3982613ed2565b604082019050919050565b60006020820190508181036000830152613f5d81613f21565b9050919050565b6000819050919050565b6000819050919050565b6000613f93613f8e613f8984613f64565b613f6e565b61361d565b9050919050565b613fa381613f78565b82525050565b600060a082019050613fbe6000830188613627565b613fcb6020830187613627565b613fd86040830186613627565b613fe56060830185613627565b613ff26080830184613f9a565b9695505050505050565b60006140078261361d565b91506140128361361d565b925082820390508181111561402a57614029613b8e565b5b92915050565b7f4e487b7100000000000000000000000000000000000000000000000000000000600052601260045260246000fd5b600061406a8261361d565b91506140758361361d565b92508261408557614084614030565b5b828204905092915050565b600061409b8261361d565b91506140a68361361d565b92508282019050808211156140be576140bd613b8e565b5b92915050565b60006140cf8261361d565b91506140da8361361d565b92508282026140e88161361d565b915082820484148315176140ff576140fe613b8e565b5b5092915050565b7f4e6f7420656e6f75676820657468657220746f20636f76657220726566756e64600082015250565b600061413c602083613c3d565b915061414782614106565b602082019050919050565b6000602082019050818103600083015261416b8161412f565b9050919050565b600061418d61418861418384613f64565b613f6e565b613a67565b9050919050565b61419d81614172565b82525050565b60006060820190506141b86000830186613627565b6141c56020830185613c05565b6141d26040830184614194565b949350505050565b7f436f6e7472616374206973206e6f7420616e2045524337323100000000000000600082015250565b6000614210601983613c3d565b915061421b826141da565b602082019050919050565b6000602082019050818103600083015261423f81614203565b9050919050565b7f6c697374696e672070726963652073686f756c6420626520677265617465722060008201527f7468616e20300000000000000000000000000000000000000000000000000000602082015250565b60006142a2602683613c3d565b91506142ad82614246565b604082019050919050565b600060208201905081810360008301526142d181614295565b9050919050565b600081905092915050565b50565b60006142f36000836142d8565b91506142fe826142e3565b600082019050919050565b6000614314826142e6565b9150819050919050565b7f5472616e73666572206661696c65640000000000000000000000000000000000600082015250565b6000614354600f83613c3d565b915061435f8261431e565b602082019050919050565b6000602082019050818103600083015261438381614347565b9050919050565b7f4e465420616c72656164792072656e7465640000000000000000000000000000600082015250565b60006143c0601283613c3d565b91506143cb8261438a565b602082019050919050565b600060208201905081810360008301526143ef816143b3565b9050919050565b600061440182613a67565b915061440c83613a67565b925082820261441a81613a67565b915080821461442c5761442b613b8e565b5b5092915050565b600061443e82613a67565b915061444983613a67565b9250828201905067ffffffffffffffff81111561446957614468613b8e565b5b92915050565b7f4e6f7420656e6f75676820657468657220746f20636f7665722072656e74616c60008201527f20706572696f6400000000000000000000000000000000000000000000000000602082015250565b60006144cb602783613c3d565b91506144d68261446f565b604082019050919050565b600060208201905081810360008301526144fa816144be565b9050919050565b61450a81613a67565b82525050565b60006060820190506145256000830186613627565b6145326020830185613c05565b61453f6040830184614501565b949350505050565b600060a08201905061455c6000830188613627565b6145696020830187613627565b6145766040830186613627565b6145836060830185614501565b6145906080830184613627565b9695505050505050565b60006060820190506145af6000830186613c05565b6145bc6020830185613627565b6145c96040830184613627565b949350505050565b60006060820190506145e66000830186613c05565b6145f36020830185613c05565b6146006040830184613627565b949350505050565b60007fffffffff0000000000000000000000000000000000000000000000000000000082169050919050565b61463d81614608565b82525050565b60006020820190506146586000830184614634565b92915050565b61466781613afa565b811461467257600080fd5b50565b6000815190506146848161465e565b92915050565b6000602082840312156146a05761469f61358d565b5b60006146ae84828501614675565b91505092915050565b7f5265656e7472616e637947756172643a207265656e7472616e742063616c6c00600082015250565b60006146ed601f83613c3d565b91506146f8826146b7565b602082019050919050565b6000602082019050818103600083015261471c816146e0565b9050919050565b7f436f756e7465723a2064656372656d656e74206f766572666c6f770000000000600082015250565b6000614759601b83613c3d565b915061476482614723565b602082019050919050565b600060208201905081810360008301526147888161474c565b9050919050565b7f4e487b7100000000000000000000000000000000000000000000000000000000600052603160045260246000fdfea264697066735822122032b646d7d47c5412f7be81d2a3091c40ee012222aff93430fa82efb6ddd5fab964736f6c63430008110033",
  "linkReferences": {},
  "deployedLinkReferences": {}
}