{
  "contractName": "RentableNft",
  "abi": [
    {
      "inputs": [
        {
          "internalType": "address",
          "name": "marketplaceContract",
          "type": "address"
        }
      ],
      "stateMutability": "nonpayable",
      "type": "constructor"
    },
    {
      "anonymous": false,
      "inputs": [
        {
          "indexed": true,
          "internalType": "address",
          "name": "owner",
          "type": "address"
        },
        {
          "indexed": true,
          "internalType": "address",
          "name": "approved",
          "type": "address"
        },
        {
          "indexed": true,
          "internalType": "uint256",
          "name": "tokenId",
          "type": "uint256"
        }
      ],
      "name": "Approval",
      "type": "event"
    },
    {
      "anonymous": false,
      "inputs": [
        {
          "indexed": true,
          "internalType": "address",
          "name": "owner",
          "type": "address"
        },
        {
          "indexed": true,
          "internalType": "address",
          "name": "operator",
          "type": "address"
        },
        {
          "indexed": false,
          "internalType": "bool",
          "name": "approved",
          "type": "bool"
        }
      ],
      "name": "ApprovalForAll",
      "type": "event"
    },
    {
      "anonymous": false,
      "inputs": [
        {
          "indexed": true,
          "internalType": "address",
          "name": "from",
          "type": "address"
        },
        {
          "indexed": true,
          "internalType": "address",
          "name": "to",
          "type": "address"
        },
        {
          "indexed": true,
          "internalType": "uint256",
          "name": "tokenId",
          "type": "uint256"
        }
      ],
      "name": "Transfer",
      "type": "event"
    },
    {
      "anonymous": false,
      "inputs": [
        {
          "indexed": true,
          "internalType": "uint256",
          "name": "tokenId",
          "type": "uint256"
        },
        {
          "indexed": true,
          "internalType": "address",
          "name": "user",
          "type": "address"
        },
        {
          "indexed": false,
          "internalType": "uint64",
          "name": "expires",
          "type": "uint64"
        }
      ],
      "name": "UpdateUser",
      "type": "event"
    },
    {
      "inputs": [
        {
          "internalType": "address",
          "name": "to",
          "type": "address"
        },
        {
          "internalType": "uint256",
          "name": "tokenId",
          "type": "uint256"
        }
      ],
      "name": "approve",
      "outputs": [],
      "stateMutability": "nonpayable",
      "type": "function"
    },
    {
      "inputs": [
        {
          "internalType": "address",
          "name": "owner",
          "type": "address"
        }
      ],
      "name": "balanceOf",
      "outputs": [
        {
          "internalType": "uint256",
          "name": "",
          "type": "uint256"
        }
      ],
      "stateMutability": "view",
      "type": "function",
      "constant": true
    },
    {
      "inputs": [
        {
          "internalType": "uint256",
          "name": "tokenId",
          "type": "uint256"
        }
      ],
      "name": "getApproved",
      "outputs": [
        {
          "internalType": "address",
          "name": "",
          "type": "address"
        }
      ],
      "stateMutability": "view",
      "type": "function",
      "constant": true
    },
    {
      "inputs": [
        {
          "internalType": "address",
          "name": "owner",
          "type": "address"
        },
        {
          "internalType": "address",
          "name": "operator",
          "type": "address"
        }
      ],
      "name": "isApprovedForAll",
      "outputs": [
        {
          "internalType": "bool",
          "name": "",
          "type": "bool"
        }
      ],
      "stateMutability": "view",
      "type": "function",
      "constant": true
    },
    {
      "inputs": [],
      "name": "name",
      "outputs": [
        {
          "internalType": "string",
          "name": "",
          "type": "string"
        }
      ],
      "stateMutability": "view",
      "type": "function",
      "constant": true
    },
    {
      "inputs": [
        {
          "internalType": "uint256",
          "name": "tokenId",
          "type": "uint256"
        }
      ],
      "name": "ownerOf",
      "outputs": [
        {
          "internalType": "address",
          "name": "",
          "type": "address"
        }
      ],
      "stateMutability": "view",
      "type": "function",
      "constant": true
    },
    {
      "inputs": [
        {
          "internalType": "address",
          "name": "from",
          "type": "address"
        },
        {
          "internalType": "address",
          "name": "to",
          "type": "address"
        },
        {
          "internalType": "uint256",
          "name": "tokenId",
          "type": "uint256"
        }
      ],
      "name": "safeTransferFrom",
      "outputs": [],
      "stateMutability": "nonpayable",
      "type": "function"
    },
    {
      "inputs": [
        {
          "internalType": "address",
          "name": "from",
          "type": "address"
        },
        {
          "internalType": "address",
          "name": "to",
          "type": "address"
        },
        {
          "internalType": "uint256",
          "name": "tokenId",
          "type": "uint256"
        },
        {
          "internalType": "bytes",
          "name": "data",
          "type": "bytes"
        }
      ],
      "name": "safeTransferFrom",
      "outputs": [],
      "stateMutability": "nonpayable",
      "type": "function"
    },
    {
      "inputs": [
        {
          "internalType": "address",
          "name": "operator",
          "type": "address"
        },
        {
          "internalType": "bool",
          "name": "approved",
          "type": "bool"
        }
      ],
      "name": "setApprovalForAll",
      "outputs": [],
      "stateMutability": "nonpayable",
      "type": "function"
    },
    {
      "inputs": [
        {
          "internalType": "uint256",
          "name": "tokenId",
          "type": "uint256"
        },
        {
          "internalType": "address",
          "name": "user",
          "type": "address"
        },
        {
          "internalType": "uint64",
          "name": "expires",
          "type": "uint64"
        }
      ],
      "name": "setUser",
      "outputs": [],
      "stateMutability": "nonpayable",
      "type": "function"
    },
    {
      "inputs": [
        {
          "internalType": "bytes4",
          "name": "interfaceId",
          "type": "bytes4"
        }
      ],
      "name": "supportsInterface",
      "outputs": [
        {
          "internalType": "bool",
          "name": "",
          "type": "bool"
        }
      ],
      "stateMutability": "view",
      "type": "function",
      "constant": true
    },
    {
      "inputs": [],
      "name": "symbol",
      "outputs": [
        {
          "internalType": "string",
          "name": "",
          "type": "string"
        }
      ],
      "stateMutability": "view",
      "type": "function",
      "constant": true
    },
    {
      "inputs": [
        {
          "internalType": "uint256",
          "name": "tokenId",
          "type": "uint256"
        }
      ],
      "name": "tokenURI",
      "outputs": [
        {
          "internalType": "string",
          "name": "",
          "type": "string"
        }
      ],
      "stateMutability": "view",
      "type": "function",
      "constant": true
    },
    {
      "inputs": [
        {
          "internalType": "address",
          "name": "from",
          "type": "address"
        },
        {
          "internalType": "address",
          "name": "to",
          "type": "address"
        },
        {
          "internalType": "uint256",
          "name": "tokenId",
          "type": "uint256"
        }
      ],
      "name": "transferFrom",
      "outputs": [],
      "stateMutability": "nonpayable",
      "type": "function"
    },
    {
      "inputs": [
        {
          "internalType": "uint256",
          "name": "tokenId",
          "type": "uint256"
        }
      ],
      "name": "userExpires",
      "outputs": [
        {
          "internalType": "uint256",
          "name": "",
          "type": "uint256"
        }
      ],
      "stateMutability": "view",
      "type": "function",
      "constant": true
    },
    {
      "inputs": [
        {
          "internalType": "uint256",
          "name": "tokenId",
          "type": "uint256"
        }
      ],
      "name": "userOf",
      "outputs": [
        {
          "internalType": "address",
          "name": "",
          "type": "address"
        }
      ],
      "stateMutability": "view",
      "type": "function",
      "constant": true
    },
    {
      "inputs": [
        {
          "internalType": "string",
          "name": "_tokenURI",
          "type": "string"
        }
      ],
      "name": "mint",
      "outputs": [],
      "stateMutability": "nonpayable",
      "type": "function"
    },
    {
      "inputs": [
        {
          "internalType": "uint256",
          "name": "tokenId",
          "type": "uint256"
        }
      ],
      "name": "burn",
      "outputs": [],
      "stateMutability": "nonpayable",
      "type": "function"
    }
  ],
  "bytecode": "0x60806040523480156200001157600080fd5b50604051620033d5380380620033d583398181016040528101906200003791906200023d565b6040518060400160405280600b81526020017f52656e7461626c654e66740000000000000000000000000000000000000000008152506040518060400160405280600481526020017f524e46540000000000000000000000000000000000000000000000000000000081525081818160009080519060200190620000bd92919062000123565b508060019080519060200190620000d692919062000123565b505050505080600860006101000a81548173ffffffffffffffffffffffffffffffffffffffff021916908373ffffffffffffffffffffffffffffffffffffffff16021790555050620002d3565b82805462000131906200029e565b90600052602060002090601f016020900481019282620001555760008555620001a1565b82601f106200017057805160ff1916838001178555620001a1565b82800160010185558215620001a1579182015b82811115620001a057825182559160200191906001019062000183565b5b509050620001b09190620001b4565b5090565b5b80821115620001cf576000816000905550600101620001b5565b5090565b600080fd5b600073ffffffffffffffffffffffffffffffffffffffff82169050919050565b60006200020582620001d8565b9050919050565b6200021781620001f8565b81146200022357600080fd5b50565b60008151905062000237816200020c565b92915050565b600060208284031215620002565762000255620001d3565b5b6000620002668482850162000226565b91505092915050565b7f4e487b7100000000000000000000000000000000000000000000000000000000600052602260045260246000fd5b60006002820490506001821680620002b757607f821691505b602082108103620002cd57620002cc6200026f565b5b50919050565b6130f280620002e36000396000f3fe608060405234801561001057600080fd5b50600436106101165760003560e01c80638fc88c48116100a2578063c2f1f14a11610071578063c2f1f14a146102ef578063c87b56dd1461031f578063d85d3d271461034f578063e030565e1461036b578063e985e9c51461038757610116565b80638fc88c481461026957806395d89b4114610299578063a22cb465146102b7578063b88d4fde146102d357610116565b806323b872dd116100e957806323b872dd146101b557806342842e0e146101d157806342966c68146101ed5780636352211e1461020957806370a082311461023957610116565b806301ffc9a71461011b57806306fdde031461014b578063081812fc14610169578063095ea7b314610199575b600080fd5b61013560048036038101906101309190611f28565b6103b7565b6040516101429190611f70565b60405180910390f35b610153610431565b6040516101609190612024565b60405180910390f35b610183600480360381019061017e919061207c565b6104c3565b60405161019091906120ea565b60405180910390f35b6101b360048036038101906101ae9190612131565b610509565b005b6101cf60048036038101906101ca9190612171565b610620565b005b6101eb60048036038101906101e69190612171565b610680565b005b6102076004803603810190610202919061207c565b6106a0565b005b610223600480360381019061021e919061207c565b6106ac565b60405161023091906120ea565b60405180910390f35b610253600480360381019061024e91906121c4565b61075d565b6040516102609190612200565b60405180910390f35b610283600480360381019061027e919061207c565b610814565b6040516102909190612200565b60405180910390f35b6102a1610852565b6040516102ae9190612024565b60405180910390f35b6102d160048036038101906102cc9190612247565b6108e4565b005b6102ed60048036038101906102e891906123bc565b6108fa565b005b6103096004803603810190610304919061207c565b61095c565b60405161031691906120ea565b60405180910390f35b6103396004803603810190610334919061207c565b6109e1565b6040516103469190612024565b60405180910390f35b610369600480360381019061036491906124e0565b610af3565b005b61038560048036038101906103809190612569565b610b50565b005b6103a1600480360381019061039c91906125bc565b610c73565b6040516103ae9190611f70565b60405180910390f35b60007fad092b5c000000000000000000000000000000000000000000000000000000007bffffffffffffffffffffffffffffffffffffffffffffffffffffffff1916827bffffffffffffffffffffffffffffffffffffffffffffffffffffffff1916148061042a575061042982610d07565b5b9050919050565b6060600080546104409061262b565b80601f016020809104026020016040519081016040528092919081815260200182805461046c9061262b565b80156104b95780601f1061048e576101008083540402835291602001916104b9565b820191906000526020600020905b81548152906001019060200180831161049c57829003601f168201915b5050505050905090565b60006104ce82610de9565b6004600083815260200190815260200160002060009054906101000a900473ffffffffffffffffffffffffffffffffffffffff169050919050565b6000610514826106ac565b90508073ffffffffffffffffffffffffffffffffffffffff168373ffffffffffffffffffffffffffffffffffffffff1603610584576040517f08c379a000000000000000000000000000000000000000000000000000000000815260040161057b906126ce565b60405180910390fd5b8073ffffffffffffffffffffffffffffffffffffffff166105a3610e34565b73ffffffffffffffffffffffffffffffffffffffff1614806105d257506105d1816105cc610e34565b610c73565b5b610611576040517f08c379a000000000000000000000000000000000000000000000000000000000815260040161060890612760565b60405180910390fd5b61061b8383610e3c565b505050565b61063161062b610e34565b82610ef5565b610670576040517f08c379a0000000000000000000000000000000000000000000000000000000008152600401610667906127f2565b60405180910390fd5b61067b838383610f8a565b505050565b61069b838383604051806020016040528060008152506108fa565b505050565b6106a9816111f0565b50565b6000806002600084815260200190815260200160002060009054906101000a900473ffffffffffffffffffffffffffffffffffffffff169050600073ffffffffffffffffffffffffffffffffffffffff168173ffffffffffffffffffffffffffffffffffffffff1603610754576040517f08c379a000000000000000000000000000000000000000000000000000000000815260040161074b9061285e565b60405180910390fd5b80915050919050565b60008073ffffffffffffffffffffffffffffffffffffffff168273ffffffffffffffffffffffffffffffffffffffff16036107cd576040517f08c379a00000000000000000000000000000000000000000000000000000000081526004016107c4906128f0565b60405180910390fd5b600360008373ffffffffffffffffffffffffffffffffffffffff1673ffffffffffffffffffffffffffffffffffffffff168152602001908152602001600020549050919050565b60006007600083815260200190815260200160002060000160149054906101000a900467ffffffffffffffff1667ffffffffffffffff169050919050565b6060600180546108619061262b565b80601f016020809104026020016040519081016040528092919081815260200182805461088d9061262b565b80156108da5780601f106108af576101008083540402835291602001916108da565b820191906000526020600020905b8154815290600101906020018083116108bd57829003601f168201915b5050505050905090565b6108f66108ef610e34565b8383611243565b5050565b61090b610905610e34565b83610ef5565b61094a576040517f08c379a0000000000000000000000000000000000000000000000000000000008152600401610941906127f2565b60405180910390fd5b610956848484846113af565b50505050565b6000426007600084815260200190815260200160002060000160149054906101000a900467ffffffffffffffff1667ffffffffffffffff16106109d7576007600083815260200190815260200160002060000160009054906101000a900473ffffffffffffffffffffffffffffffffffffffff1690506109dc565b600090505b919050565b60606109ec82610de9565b6000600660008481526020019081526020016000208054610a0c9061262b565b80601f0160208091040260200160405190810160405280929190818152602001828054610a389061262b565b8015610a855780601f10610a5a57610100808354040283529160200191610a85565b820191906000526020600020905b815481529060010190602001808311610a6857829003601f168201915b505050505090506000610a9661140b565b90506000815103610aab578192505050610aee565b600082511115610ae0578082604051602001610ac892919061294c565b60405160208183030381529060405292505050610aee565b610ae984611422565b925050505b919050565b610afd600961148a565b6000610b0960096114a0565b9050610b1533826114ae565b610b42600860009054906101000a900473ffffffffffffffffffffffffffffffffffffffff1660016108e4565b610b4c81836114cc565b5050565b610b5a3384610ef5565b610b99576040517f08c379a0000000000000000000000000000000000000000000000000000000008152600401610b90906129e2565b60405180910390fd5b6000600760008581526020019081526020016000209050828160000160006101000a81548173ffffffffffffffffffffffffffffffffffffffff021916908373ffffffffffffffffffffffffffffffffffffffff160217905550818160000160146101000a81548167ffffffffffffffff021916908367ffffffffffffffff1602179055508273ffffffffffffffffffffffffffffffffffffffff16847f4e06b4e7000e659094299b3533b47b6aa8ad048e95e872d23d1f4ee55af89cfe84604051610c659190612a11565b60405180910390a350505050565b6000600560008473ffffffffffffffffffffffffffffffffffffffff1673ffffffffffffffffffffffffffffffffffffffff16815260200190815260200160002060008373ffffffffffffffffffffffffffffffffffffffff1673ffffffffffffffffffffffffffffffffffffffff16815260200190815260200160002060009054906101000a900460ff16905092915050565b60007f80ac58cd000000000000000000000000000000000000000000000000000000007bffffffffffffffffffffffffffffffffffffffffffffffffffffffff1916827bffffffffffffffffffffffffffffffffffffffffffffffffffffffff19161480610dd257507f5b5e139f000000000000000000000000000000000000000000000000000000007bffffffffffffffffffffffffffffffffffffffffffffffffffffffff1916827bffffffffffffffffffffffffffffffffffffffffffffffffffffffff1916145b80610de25750610de182611540565b5b9050919050565b610df2816115aa565b610e31576040517f08c379a0000000000000000000000000000000000000000000000000000000008152600401610e289061285e565b60405180910390fd5b50565b600033905090565b816004600083815260200190815260200160002060006101000a81548173ffffffffffffffffffffffffffffffffffffffff021916908373ffffffffffffffffffffffffffffffffffffffff160217905550808273ffffffffffffffffffffffffffffffffffffffff16610eaf836106ac565b73ffffffffffffffffffffffffffffffffffffffff167f8c5be1e5ebec7d5bd14f71427d1e84f3dd0314c0f7b2291e5b200ac8c7c3b92560405160405180910390a45050565b600080610f01836106ac565b90508073ffffffffffffffffffffffffffffffffffffffff168473ffffffffffffffffffffffffffffffffffffffff161480610f435750610f428185610c73565b5b80610f8157508373ffffffffffffffffffffffffffffffffffffffff16610f69846104c3565b73ffffffffffffffffffffffffffffffffffffffff16145b91505092915050565b8273ffffffffffffffffffffffffffffffffffffffff16610faa826106ac565b73ffffffffffffffffffffffffffffffffffffffff1614611000576040517f08c379a0000000000000000000000000000000000000000000000000000000008152600401610ff790612a9e565b60405180910390fd5b600073ffffffffffffffffffffffffffffffffffffffff168273ffffffffffffffffffffffffffffffffffffffff160361106f576040517f08c379a000000000000000000000000000000000000000000000000000000000815260040161106690612b30565b60405180910390fd5b61107a838383611616565b611085600082610e3c565b6001600360008573ffffffffffffffffffffffffffffffffffffffff1673ffffffffffffffffffffffffffffffffffffffff16815260200190815260200160002060008282546110d59190612b7f565b925050819055506001600360008473ffffffffffffffffffffffffffffffffffffffff1673ffffffffffffffffffffffffffffffffffffffff168152602001908152602001600020600082825461112c9190612bb3565b92505081905550816002600083815260200190815260200160002060006101000a81548173ffffffffffffffffffffffffffffffffffffffff021916908373ffffffffffffffffffffffffffffffffffffffff160217905550808273ffffffffffffffffffffffffffffffffffffffff168473ffffffffffffffffffffffffffffffffffffffff167fddf252ad1be2c89b69c2b068fc378daa952ba7f163c4a11628f55a4df523b3ef60405160405180910390a46111eb838383611774565b505050565b6111f981611779565b60006006600083815260200190815260200160002080546112199061262b565b9050146112405760066000828152602001908152602001600020600061123f9190611dd9565b5b50565b8173ffffffffffffffffffffffffffffffffffffffff168373ffffffffffffffffffffffffffffffffffffffff16036112b1576040517f08c379a00000000000000000000000000000000000000000000000000000000081526004016112a890612c55565b60405180910390fd5b80600560008573ffffffffffffffffffffffffffffffffffffffff1673ffffffffffffffffffffffffffffffffffffffff16815260200190815260200160002060008473ffffffffffffffffffffffffffffffffffffffff1673ffffffffffffffffffffffffffffffffffffffff16815260200190815260200160002060006101000a81548160ff0219169083151502179055508173ffffffffffffffffffffffffffffffffffffffff168373ffffffffffffffffffffffffffffffffffffffff167f17307eab39ab6107e8899845ad3d59bd9653f200f220920489ca2b5937696c31836040516113a29190611f70565b60405180910390a3505050565b6113ba848484610f8a565b6113c684848484611896565b611405576040517f08c379a00000000000000000000000000000000000000000000000000000000081526004016113fc90612ce7565b60405180910390fd5b50505050565b606060405180602001604052806000815250905090565b606061142d82610de9565b600061143761140b565b905060008151116114575760405180602001604052806000815250611482565b8061146184611a1d565b60405160200161147292919061294c565b6040516020818303038152906040525b915050919050565b6001816000016000828254019250508190555050565b600081600001549050919050565b6114c8828260405180602001604052806000815250611b7d565b5050565b6114d5826115aa565b611514576040517f08c379a000000000000000000000000000000000000000000000000000000000815260040161150b90612d79565b60405180910390fd5b8060066000848152602001908152602001600020908051906020019061153b929190611e19565b505050565b60007f01ffc9a7000000000000000000000000000000000000000000000000000000007bffffffffffffffffffffffffffffffffffffffffffffffffffffffff1916827bffffffffffffffffffffffffffffffffffffffffffffffffffffffff1916149050919050565b60008073ffffffffffffffffffffffffffffffffffffffff166002600084815260200190815260200160002060009054906101000a900473ffffffffffffffffffffffffffffffffffffffff1673ffffffffffffffffffffffffffffffffffffffff1614159050919050565b611621838383611bd8565b8173ffffffffffffffffffffffffffffffffffffffff168373ffffffffffffffffffffffffffffffffffffffff16141580156116c05750600073ffffffffffffffffffffffffffffffffffffffff166007600083815260200190815260200160002060000160009054906101000a900473ffffffffffffffffffffffffffffffffffffffff1673ffffffffffffffffffffffffffffffffffffffff1614155b1561176f5760076000828152602001908152602001600020600080820160006101000a81549073ffffffffffffffffffffffffffffffffffffffff02191690556000820160146101000a81549067ffffffffffffffff02191690555050600073ffffffffffffffffffffffffffffffffffffffff16817f4e06b4e7000e659094299b3533b47b6aa8ad048e95e872d23d1f4ee55af89cfe60006040516117669190612dde565b60405180910390a35b505050565b505050565b6000611784826106ac565b905061179281600084611616565b61179d600083610e3c565b6001600360008373ffffffffffffffffffffffffffffffffffffffff1673ffffffffffffffffffffffffffffffffffffffff16815260200190815260200160002060008282546117ed9190612b7f565b925050819055506002600083815260200190815260200160002060006101000a81549073ffffffffffffffffffffffffffffffffffffffff021916905581600073ffffffffffffffffffffffffffffffffffffffff168273ffffffffffffffffffffffffffffffffffffffff167fddf252ad1be2c89b69c2b068fc378daa952ba7f163c4a11628f55a4df523b3ef60405160405180910390a461189281600084611774565b5050565b60006118b78473ffffffffffffffffffffffffffffffffffffffff16611bdd565b15611a10578373ffffffffffffffffffffffffffffffffffffffff1663150b7a026118e0610e34565b8786866040518563ffffffff1660e01b81526004016119029493929190612e4e565b6020604051808303816000875af192505050801561193e57506040513d601f19601f8201168201806040525081019061193b9190612eaf565b60015b6119c0573d806000811461196e576040519150601f19603f3d011682016040523d82523d6000602084013e611973565b606091505b5060008151036119b8576040517f08c379a00000000000000000000000000000000000000000000000000000000081526004016119af90612ce7565b60405180910390fd5b805181602001fd5b63150b7a0260e01b7bffffffffffffffffffffffffffffffffffffffffffffffffffffffff1916817bffffffffffffffffffffffffffffffffffffffffffffffffffffffff191614915050611a15565b600190505b949350505050565b606060008203611a64576040518060400160405280600181526020017f30000000000000000000000000000000000000000000000000000000000000008152509050611b78565b600082905060005b60008214611a96578080611a7f90612edc565b915050600a82611a8f9190612f53565b9150611a6c565b60008167ffffffffffffffff811115611ab257611ab1612291565b5b6040519080825280601f01601f191660200182016040528015611ae45781602001600182028036833780820191505090505b5090505b60008514611b7157600182611afd9190612b7f565b9150600a85611b0c9190612f84565b6030611b189190612bb3565b60f81b818381518110611b2e57611b2d612fb5565b5b60200101907effffffffffffffffffffffffffffffffffffffffffffffffffffffffffffff1916908160001a905350600a85611b6a9190612f53565b9450611ae8565b8093505050505b919050565b611b878383611c00565b611b946000848484611896565b611bd3576040517f08c379a0000000000000000000000000000000000000000000000000000000008152600401611bca90612ce7565b60405180910390fd5b505050565b505050565b6000808273ffffffffffffffffffffffffffffffffffffffff163b119050919050565b600073ffffffffffffffffffffffffffffffffffffffff168273ffffffffffffffffffffffffffffffffffffffff1603611c6f576040517f08c379a0000000000000000000000000000000000000000000000000000000008152600401611c6690613030565b60405180910390fd5b611c78816115aa565b15611cb8576040517f08c379a0000000000000000000000000000000000000000000000000000000008152600401611caf9061309c565b60405180910390fd5b611cc460008383611616565b6001600360008473ffffffffffffffffffffffffffffffffffffffff1673ffffffffffffffffffffffffffffffffffffffff1681526020019081526020016000206000828254611d149190612bb3565b92505081905550816002600083815260200190815260200160002060006101000a81548173ffffffffffffffffffffffffffffffffffffffff021916908373ffffffffffffffffffffffffffffffffffffffff160217905550808273ffffffffffffffffffffffffffffffffffffffff16600073ffffffffffffffffffffffffffffffffffffffff167fddf252ad1be2c89b69c2b068fc378daa952ba7f163c4a11628f55a4df523b3ef60405160405180910390a4611dd560008383611774565b5050565b508054611de59061262b565b6000825580601f10611df75750611e16565b601f016020900490600052602060002090810190611e159190611e9f565b5b50565b828054611e259061262b565b90600052602060002090601f016020900481019282611e475760008555611e8e565b82601f10611e6057805160ff1916838001178555611e8e565b82800160010185558215611e8e579182015b82811115611e8d578251825591602001919060010190611e72565b5b509050611e9b9190611e9f565b5090565b5b80821115611eb8576000816000905550600101611ea0565b5090565b6000604051905090565b600080fd5b600080fd5b60007fffffffff0000000000000000000000000000000000000000000000000000000082169050919050565b611f0581611ed0565b8114611f1057600080fd5b50565b600081359050611f2281611efc565b92915050565b600060208284031215611f3e57611f3d611ec6565b5b6000611f4c84828501611f13565b91505092915050565b60008115159050919050565b611f6a81611f55565b82525050565b6000602082019050611f856000830184611f61565b92915050565b600081519050919050565b600082825260208201905092915050565b60005b83811015611fc5578082015181840152602081019050611faa565b83811115611fd4576000848401525b50505050565b6000601f19601f8301169050919050565b6000611ff682611f8b565b6120008185611f96565b9350612010818560208601611fa7565b61201981611fda565b840191505092915050565b6000602082019050818103600083015261203e8184611feb565b905092915050565b6000819050919050565b61205981612046565b811461206457600080fd5b50565b60008135905061207681612050565b92915050565b60006020828403121561209257612091611ec6565b5b60006120a084828501612067565b91505092915050565b600073ffffffffffffffffffffffffffffffffffffffff82169050919050565b60006120d4826120a9565b9050919050565b6120e4816120c9565b82525050565b60006020820190506120ff60008301846120db565b92915050565b61210e816120c9565b811461211957600080fd5b50565b60008135905061212b81612105565b92915050565b6000806040838503121561214857612147611ec6565b5b60006121568582860161211c565b925050602061216785828601612067565b9150509250929050565b60008060006060848603121561218a57612189611ec6565b5b60006121988682870161211c565b93505060206121a98682870161211c565b92505060406121ba86828701612067565b9150509250925092565b6000602082840312156121da576121d9611ec6565b5b60006121e88482850161211c565b91505092915050565b6121fa81612046565b82525050565b600060208201905061221560008301846121f1565b92915050565b61222481611f55565b811461222f57600080fd5b50565b6000813590506122418161221b565b92915050565b6000806040838503121561225e5761225d611ec6565b5b600061226c8582860161211c565b925050602061227d85828601612232565b9150509250929050565b600080fd5b600080fd5b7f4e487b7100000000000000000000000000000000000000000000000000000000600052604160045260246000fd5b6122c982611fda565b810181811067ffffffffffffffff821117156122e8576122e7612291565b5b80604052505050565b60006122fb611ebc565b905061230782826122c0565b919050565b600067ffffffffffffffff82111561232757612326612291565b5b61233082611fda565b9050602081019050919050565b82818337600083830152505050565b600061235f61235a8461230c565b6122f1565b90508281526020810184848401111561237b5761237a61228c565b5b61238684828561233d565b509392505050565b600082601f8301126123a3576123a2612287565b5b81356123b384826020860161234c565b91505092915050565b600080600080608085870312156123d6576123d5611ec6565b5b60006123e48782880161211c565b94505060206123f58782880161211c565b935050604061240687828801612067565b925050606085013567ffffffffffffffff81111561242757612426611ecb565b5b6124338782880161238e565b91505092959194509250565b600067ffffffffffffffff82111561245a57612459612291565b5b61246382611fda565b9050602081019050919050565b600061248361247e8461243f565b6122f1565b90508281526020810184848401111561249f5761249e61228c565b5b6124aa84828561233d565b509392505050565b600082601f8301126124c7576124c6612287565b5b81356124d7848260208601612470565b91505092915050565b6000602082840312156124f6576124f5611ec6565b5b600082013567ffffffffffffffff81111561251457612513611ecb565b5b612520848285016124b2565b91505092915050565b600067ffffffffffffffff82169050919050565b61254681612529565b811461255157600080fd5b50565b6000813590506125638161253d565b92915050565b60008060006060848603121561258257612581611ec6565b5b600061259086828701612067565b93505060206125a18682870161211c565b92505060406125b286828701612554565b9150509250925092565b600080604083850312156125d3576125d2611ec6565b5b60006125e18582860161211c565b92505060206125f28582860161211c565b9150509250929050565b7f4e487b7100000000000000000000000000000000000000000000000000000000600052602260045260246000fd5b6000600282049050600182168061264357607f821691505b602082108103612656576126556125fc565b5b50919050565b7f4552433732313a20617070726f76616c20746f2063757272656e74206f776e6560008201527f7200000000000000000000000000000000000000000000000000000000000000602082015250565b60006126b8602183611f96565b91506126c38261265c565b604082019050919050565b600060208201905081810360008301526126e7816126ab565b9050919050565b7f4552433732313a20617070726f76652063616c6c6572206973206e6f7420746f60008201527f6b656e206f776e6572206e6f7220617070726f76656420666f7220616c6c0000602082015250565b600061274a603e83611f96565b9150612755826126ee565b604082019050919050565b600060208201905081810360008301526127798161273d565b9050919050565b7f4552433732313a2063616c6c6572206973206e6f7420746f6b656e206f776e6560008201527f72206e6f7220617070726f766564000000000000000000000000000000000000602082015250565b60006127dc602e83611f96565b91506127e782612780565b604082019050919050565b6000602082019050818103600083015261280b816127cf565b9050919050565b7f4552433732313a20696e76616c696420746f6b656e2049440000000000000000600082015250565b6000612848601883611f96565b915061285382612812565b602082019050919050565b600060208201905081810360008301526128778161283b565b9050919050565b7f4552433732313a2061646472657373207a65726f206973206e6f74206120766160008201527f6c6964206f776e65720000000000000000000000000000000000000000000000602082015250565b60006128da602983611f96565b91506128e58261287e565b604082019050919050565b60006020820190508181036000830152612909816128cd565b9050919050565b600081905092915050565b600061292682611f8b565b6129308185612910565b9350612940818560208601611fa7565b80840191505092915050565b6000612958828561291b565b9150612964828461291b565b91508190509392505050565b7f4552433732313a207472616e736665722063616c6c6572206973206e6f74206f60008201527f776e6572206e6f7220617070726f766564000000000000000000000000000000602082015250565b60006129cc603183611f96565b91506129d782612970565b604082019050919050565b600060208201905081810360008301526129fb816129bf565b9050919050565b612a0b81612529565b82525050565b6000602082019050612a266000830184612a02565b92915050565b7f4552433732313a207472616e736665722066726f6d20696e636f72726563742060008201527f6f776e6572000000000000000000000000000000000000000000000000000000602082015250565b6000612a88602583611f96565b9150612a9382612a2c565b604082019050919050565b60006020820190508181036000830152612ab781612a7b565b9050919050565b7f4552433732313a207472616e7366657220746f20746865207a65726f2061646460008201527f7265737300000000000000000000000000000000000000000000000000000000602082015250565b6000612b1a602483611f96565b9150612b2582612abe565b604082019050919050565b60006020820190508181036000830152612b4981612b0d565b9050919050565b7f4e487b7100000000000000000000000000000000000000000000000000000000600052601160045260246000fd5b6000612b8a82612046565b9150612b9583612046565b925082821015612ba857612ba7612b50565b5b828203905092915050565b6000612bbe82612046565b9150612bc983612046565b9250827fffffffffffffffffffffffffffffffffffffffffffffffffffffffffffffffff03821115612bfe57612bfd612b50565b5b828201905092915050565b7f4552433732313a20617070726f766520746f2063616c6c657200000000000000600082015250565b6000612c3f601983611f96565b9150612c4a82612c09565b602082019050919050565b60006020820190508181036000830152612c6e81612c32565b9050919050565b7f4552433732313a207472616e7366657220746f206e6f6e20455243373231526560008201527f63656976657220696d706c656d656e7465720000000000000000000000000000602082015250565b6000612cd1603283611f96565b9150612cdc82612c75565b604082019050919050565b60006020820190508181036000830152612d0081612cc4565b9050919050565b7f45524337323155524953746f726167653a2055524920736574206f66206e6f6e60008201527f6578697374656e7420746f6b656e000000000000000000000000000000000000602082015250565b6000612d63602e83611f96565b9150612d6e82612d07565b604082019050919050565b60006020820190508181036000830152612d9281612d56565b9050919050565b6000819050919050565b6000819050919050565b6000612dc8612dc3612dbe84612d99565b612da3565b612529565b9050919050565b612dd881612dad565b82525050565b6000602082019050612df36000830184612dcf565b92915050565b600081519050919050565b600082825260208201905092915050565b6000612e2082612df9565b612e2a8185612e04565b9350612e3a818560208601611fa7565b612e4381611fda565b840191505092915050565b6000608082019050612e6360008301876120db565b612e7060208301866120db565b612e7d60408301856121f1565b8181036060830152612e8f8184612e15565b905095945050505050565b600081519050612ea981611efc565b92915050565b600060208284031215612ec557612ec4611ec6565b5b6000612ed384828501612e9a565b91505092915050565b6000612ee782612046565b91507fffffffffffffffffffffffffffffffffffffffffffffffffffffffffffffffff8203612f1957612f18612b50565b5b600182019050919050565b7f4e487b7100000000000000000000000000000000000000000000000000000000600052601260045260246000fd5b6000612f5e82612046565b9150612f6983612046565b925082612f7957612f78612f24565b5b828204905092915050565b6000612f8f82612046565b9150612f9a83612046565b925082612faa57612fa9612f24565b5b828206905092915050565b7f4e487b7100000000000000000000000000000000000000000000000000000000600052603260045260246000fd5b7f4552433732313a206d696e7420746f20746865207a65726f2061646472657373600082015250565b600061301a602083611f96565b915061302582612fe4565b602082019050919050565b600060208201905081810360008301526130498161300d565b9050919050565b7f4552433732313a20746f6b656e20616c7265616479206d696e74656400000000600082015250565b6000613086601c83611f96565b915061309182613050565b602082019050919050565b600060208201905081810360008301526130b581613079565b905091905056fea264697066735822122062cf863779c18570a0d688f17bf9b32c16424be3032e4b5ede993db99298de2464736f6c634300080e0033",
  "immutableReferences": {},
  "source": "// SPDX-License-Identifier: MIT\r\npragma solidity >=0.4.22 <0.9.0;\r\n\r\nimport \"./ERC4907.sol\";\r\nimport \"@openzeppelin/contracts/utils/Counters.sol\";\r\n\r\ncontract RentableNft is ERC4907 {\r\n  using Counters for Counters.Counter;\r\n  address private _marketplaceContract;\r\n  Counters.Counter private _tokenIds;\r\n\r\n  constructor(address marketplaceContract) ERC4907(\"RentableNft\", \"RNFT\") {\r\n    _marketplaceContract = marketplaceContract;\r\n  }\r\n\r\n  function mint(string memory _tokenURI) public {\r\n    _tokenIds.increment();\r\n    uint256 newTokenId = _tokenIds.current();\r\n    _safeMint(msg.sender, newTokenId);\r\n    setApprovalForAll(_marketplaceContract, true);\r\n    _setTokenURI(newTokenId, _tokenURI);\r\n  }\r\n\r\n  function burn(uint256 tokenId) public {\r\n    _burn(tokenId);\r\n  }\r\n}",
  "sourcePath": "E:\\fyp-work\\Test\\unleashed_nft_rental_marketplace\\truffle\\contracts\\RentableNft.sol",
  "compiler": {
    "name": "solc",
    "version": "0.8.14+commit.80d49f37.Emscripten.clang"
  },
  "schemaVersion": "3.4.11",
  "updatedAt": "2023-01-10T15:26:50.277Z",
  "networkType": "ethereum",
  "devdoc": {
    "kind": "dev",
    "methods": {
      "approve(address,uint256)": {
        "details": "See {IERC721-approve}."
      },
      "balanceOf(address)": {
        "details": "See {IERC721-balanceOf}."
      },
      "getApproved(uint256)": {
        "details": "See {IERC721-getApproved}."
      },
      "isApprovedForAll(address,address)": {
        "details": "See {IERC721-isApprovedForAll}."
      },
      "name()": {
        "details": "See {IERC721Metadata-name}."
      },
      "ownerOf(uint256)": {
        "details": "See {IERC721-ownerOf}."
      },
      "safeTransferFrom(address,address,uint256)": {
        "details": "See {IERC721-safeTransferFrom}."
      },
      "safeTransferFrom(address,address,uint256,bytes)": {
        "details": "See {IERC721-safeTransferFrom}."
      },
      "setApprovalForAll(address,bool)": {
        "details": "See {IERC721-setApprovalForAll}."
      },
      "setUser(uint256,address,uint64)": {
        "details": "The zero address indicates there is no user Throws if `tokenId` is not valid NFT",
        "params": {
          "expires": "UNIX timestamp, The new user could use the NFT before expires",
          "user": "The new user of the NFT"
        }
      },
      "supportsInterface(bytes4)": {
        "details": "See {IERC165-supportsInterface}."
      },
      "symbol()": {
        "details": "See {IERC721Metadata-symbol}."
      },
      "tokenURI(uint256)": {
        "details": "See {IERC721Metadata-tokenURI}."
      },
      "transferFrom(address,address,uint256)": {
        "details": "See {IERC721-transferFrom}."
      },
      "userExpires(uint256)": {
        "details": "The zero value indicates that there is no user",
        "params": {
          "tokenId": "The NFT to get the user expires for"
        },
        "returns": {
          "_0": "The user expires for this NFT"
        }
      },
      "userOf(uint256)": {
        "details": "The zero address indicates that there is no user or the user is expired",
        "params": {
          "tokenId": "The NFT to get the user address for"
        },
        "returns": {
          "_0": "The user address for this NFT"
        }
      }
    },
    "version": 1
  },
  "userdoc": {
    "events": {
      "UpdateUser(uint256,address,uint64)": {
        "notice": "Emitted when the `user` of an NFT or the `expires` of the `user` is changed The zero address for user indicates that there is no user address"
      }
    },
    "kind": "user",
    "methods": {
      "setUser(uint256,address,uint64)": {
        "notice": "set the user and expires of a NFT"
      },
      "userExpires(uint256)": {
        "notice": "Get the user expires of an NFT"
      },
      "userOf(uint256)": {
        "notice": "Get the user address of an NFT"
      }
    },
    "version": 1
  }
}